{
  "contractName": "People",
  "abi": [
    {
      "anonymous": false,
      "inputs": [
        {
          "indexed": false,
          "internalType": "string",
          "name": "name",
          "type": "string"
        },
        {
          "indexed": false,
          "internalType": "bool",
          "name": "senior",
          "type": "bool"
        }
      ],
      "name": "personCreated",
      "type": "event"
    },
    {
      "anonymous": false,
      "inputs": [
        {
          "indexed": false,
          "internalType": "string",
          "name": "name",
          "type": "string"
        },
        {
          "indexed": false,
          "internalType": "bool",
          "name": "senior",
          "type": "bool"
        },
        {
          "indexed": false,
          "internalType": "address",
          "name": "deletedBy",
          "type": "address"
        }
      ],
      "name": "personDeleted",
      "type": "event"
    },
    {
      "inputs": [],
      "name": "balance",
      "outputs": [
        {
          "internalType": "uint256",
          "name": "",
          "type": "uint256"
        }
      ],
      "stateMutability": "view",
      "type": "function",
      "constant": true
    },
    {
      "inputs": [],
      "name": "owner",
      "outputs": [
        {
          "internalType": "address",
          "name": "",
          "type": "address"
        }
      ],
      "stateMutability": "view",
      "type": "function",
      "constant": true
    },
    {
      "inputs": [
        {
          "internalType": "string",
          "name": "name",
          "type": "string"
        },
        {
          "internalType": "uint256",
          "name": "age",
          "type": "uint256"
        },
        {
          "internalType": "uint256",
          "name": "height",
          "type": "uint256"
        }
      ],
      "name": "createPerson",
      "outputs": [],
      "stateMutability": "payable",
      "type": "function",
      "payable": true
    },
    {
      "inputs": [],
      "name": "getPerson",
      "outputs": [
        {
          "internalType": "string",
          "name": "name",
          "type": "string"
        },
        {
          "internalType": "uint256",
          "name": "age",
          "type": "uint256"
        },
        {
          "internalType": "uint256",
          "name": "height",
          "type": "uint256"
        },
        {
          "internalType": "bool",
          "name": "senior",
          "type": "bool"
        }
      ],
      "stateMutability": "view",
      "type": "function",
      "constant": true
    },
    {
      "inputs": [
        {
          "internalType": "address",
          "name": "creator",
          "type": "address"
        }
      ],
      "name": "deletePerson",
      "outputs": [],
      "stateMutability": "nonpayable",
      "type": "function"
    },
    {
      "inputs": [
        {
          "internalType": "uint256",
          "name": "index",
          "type": "uint256"
        }
      ],
      "name": "getCreator",
      "outputs": [
        {
          "internalType": "address",
          "name": "",
          "type": "address"
        }
      ],
      "stateMutability": "view",
      "type": "function",
      "constant": true
    },
    {
      "inputs": [],
      "name": "withdrawAll",
      "outputs": [
        {
          "internalType": "uint256",
          "name": "",
          "type": "uint256"
        }
      ],
      "stateMutability": "nonpayable",
      "type": "function"
    }
  ],
  "bytecode": "0x608060405234801561001057600080fd5b50336000806101000a81548173ffffffffffffffffffffffffffffffffffffffff021916908373ffffffffffffffffffffffffffffffffffffffff16021790555061102b806100606000396000f3fe6080604052600436106100705760003560e01c80638ec4dc951161004e5780638ec4dc9514610132578063b69ef8a8146101d9578063d48e638a14610204578063fce82d711461026957610070565b8063102cda4a14610075578063853828b6146100c65780638da5cb5b146100f1575b600080fd5b34801561008157600080fd5b506100c46004803603602081101561009857600080fd5b81019080803573ffffffffffffffffffffffffffffffffffffffff169060200190929190505050610338565b005b3480156100d257600080fd5b506100db610676565b6040518082815260200191505060405180910390f35b3480156100fd57600080fd5b5061010661072e565b604051808273ffffffffffffffffffffffffffffffffffffffff16815260200191505060405180910390f35b34801561013e57600080fd5b50610147610752565b60405180806020018581526020018481526020018315158152602001828103825286818151815260200191508051906020019080838360005b8381101561019b578082015181840152602081019050610180565b50505050905090810190601f1680156101c85780820380516001836020036101000a031916815260200191505b509550505050505060405180910390f35b3480156101e557600080fd5b506101ee610920565b6040518082815260200191505060405180910390f35b34801561021057600080fd5b5061023d6004803603602081101561022757600080fd5b8101908080359060200190929190505050610926565b604051808273ffffffffffffffffffffffffffffffffffffffff16815260200191505060405180910390f35b6103366004803603606081101561027f57600080fd5b810190808035906020019064010000000081111561029c57600080fd5b8201836020820111156102ae57600080fd5b803590602001918460018302840111640100000000831117156102d057600080fd5b91908080601f016020809104026020016040519081016040528093929190818152602001838380828437600081840152601f19601f82011690508083019250505050505050919291929080359060200190929190803590602001909291905050506109c0565b005b60008054906101000a900473ffffffffffffffffffffffffffffffffffffffff1673ffffffffffffffffffffffffffffffffffffffff163373ffffffffffffffffffffffffffffffffffffffff161461039057600080fd5b6060600260008373ffffffffffffffffffffffffffffffffffffffff1673ffffffffffffffffffffffffffffffffffffffff1681526020019081526020016000206001018054600181600116156101000203166002900480601f0160208091040260200160405190810160405280929190818152602001828054600181600116156101000203166002900480156104685780601f1061043d57610100808354040283529160200191610468565b820191906000526020600020905b81548152906001019060200180831161044b57829003601f168201915b505050505090506000600260008473ffffffffffffffffffffffffffffffffffffffff1673ffffffffffffffffffffffffffffffffffffffff16815260200190815260200160002060040160009054906101000a900460ff169050600260008473ffffffffffffffffffffffffffffffffffffffff1673ffffffffffffffffffffffffffffffffffffffff16815260200190815260200160002060008082016000905560018201600061051b9190610edf565b600282016000905560038201600090556004820160006101000a81549060ff021916905550506000600260008573ffffffffffffffffffffffffffffffffffffffff1673ffffffffffffffffffffffffffffffffffffffff168152602001908152602001600020600201541461058d57fe5b7fce505ea5e5a360ed968bacfdf5b52e168dfe627776422d678cb12143ebe187c8828260008054906101000a900473ffffffffffffffffffffffffffffffffffffffff16604051808060200184151581526020018373ffffffffffffffffffffffffffffffffffffffff168152602001828103825285818151815260200191508051906020019080838360005b8381101561063557808201518184015260208101905061061a565b50505050905090810190601f1680156106625780820380516001836020036101000a031916815260200191505b5094505050505060405180910390a1505050565b60008060009054906101000a900473ffffffffffffffffffffffffffffffffffffffff1673ffffffffffffffffffffffffffffffffffffffff163373ffffffffffffffffffffffffffffffffffffffff16146106d157600080fd5b6000600154905060006001819055503373ffffffffffffffffffffffffffffffffffffffff166108fc829081150290604051600060405180830381858888f19350505050158015610726573d6000803e3d6000fd5b508091505090565b60008054906101000a900473ffffffffffffffffffffffffffffffffffffffff1681565b6060600080600080339050600260008273ffffffffffffffffffffffffffffffffffffffff1673ffffffffffffffffffffffffffffffffffffffff168152602001908152602001600020600101600260008373ffffffffffffffffffffffffffffffffffffffff1673ffffffffffffffffffffffffffffffffffffffff16815260200190815260200160002060020154600260008473ffffffffffffffffffffffffffffffffffffffff1673ffffffffffffffffffffffffffffffffffffffff16815260200190815260200160002060030154600260008573ffffffffffffffffffffffffffffffffffffffff1673ffffffffffffffffffffffffffffffffffffffff16815260200190815260200160002060040160009054906101000a900460ff16838054600181600116156101000203166002900480601f01602080910402602001604051908101604052809291908181526020018280546001816001161561010002031660029004801561090a5780601f106108df5761010080835404028352916020019161090a565b820191906000526020600020905b8154815290600101906020018083116108ed57829003601f168201915b5050505050935094509450945094505090919293565b60015481565b60008060009054906101000a900473ffffffffffffffffffffffffffffffffffffffff1673ffffffffffffffffffffffffffffffffffffffff163373ffffffffffffffffffffffffffffffffffffffff161461098157600080fd5b6003828154811061098e57fe5b9060005260206000200160009054906101000a900473ffffffffffffffffffffffffffffffffffffffff169050919050565b670de0b6b3a7640000803410156109d657600080fd5b60968310610a4c576040517f08c379a00000000000000000000000000000000000000000000000000000000081526004018080602001828103825260198152602001807f416765206e6565647320746f2062652062656c6f77203135300000000000000081525060200191505060405180910390fd5b670de0b6b3a7640000341015610a6157600080fd5b34600160008282540192505081905550610a79610f27565b848160200181905250838160400181815250508281606001818152505060418410610ab4576001816080019015159081151581525050610ac6565b60008160800190151590811515815250505b610acf81610e38565b6003339080600181540180825580915050600190039060005260206000200160009091909190916101000a81548173ffffffffffffffffffffffffffffffffffffffff021916908373ffffffffffffffffffffffffffffffffffffffff16021790555080602001518160400151826060015183608001516040516020018085805190602001908083835b60208310610b7c5780518252602082019150602081019050602083039250610b59565b6001836020036101000a03801982511681845116808217855250505050505090500184815260200183815260200182151560f81b815260010194505050505060405160208183030381529060405280519060200120600260003373ffffffffffffffffffffffffffffffffffffffff1673ffffffffffffffffffffffffffffffffffffffff168152602001908152602001600020600101600260003373ffffffffffffffffffffffffffffffffffffffff1673ffffffffffffffffffffffffffffffffffffffff16815260200190815260200160002060020154600260003373ffffffffffffffffffffffffffffffffffffffff1673ffffffffffffffffffffffffffffffffffffffff16815260200190815260200160002060030154600260003373ffffffffffffffffffffffffffffffffffffffff1673ffffffffffffffffffffffffffffffffffffffff16815260200190815260200160002060040160009054906101000a900460ff166040516020018085805460018160011615610100020316600290048015610d475780601f10610d25576101008083540402835291820191610d47565b820191906000526020600020905b815481529060010190602001808311610d33575b505084815260200183815260200182151560f81b81526001019450505050506040516020818303038152906040528051906020012014610d8357fe5b7f483a95908cf8068144f424e2adef59ae102592afd2706bb3d37a620b6a2304e78160200151826080015160405180806020018315158152602001828103825284818151815260200191508051906020019080838360005b83811015610df6578082015181840152602081019050610ddb565b50505050905090810190601f168015610e235780820380516001836020036101000a031916815260200191505b50935050505060405180910390a15050505050565b600033905081600260008373ffffffffffffffffffffffffffffffffffffffff1673ffffffffffffffffffffffffffffffffffffffff168152602001908152602001600020600082015181600001556020820151816001019080519060200190610ea3929190610f58565b50604082015181600201556060820151816003015560808201518160040160006101000a81548160ff0219169083151502179055509050505050565b50805460018160011615610100020316600290046000825580601f10610f055750610f24565b601f016020900490600052602060002090810190610f239190610fd8565b5b50565b6040518060a00160405280600081526020016060815260200160008152602001600081526020016000151581525090565b828054600181600116156101000203166002900490600052602060002090601f016020900481019282601f10610f9957805160ff1916838001178555610fc7565b82800160010185558215610fc7579182015b82811115610fc6578251825591602001919060010190610fab565b5b509050610fd49190610fd8565b5090565b5b80821115610ff1576000816000905550600101610fd9565b509056fea264697066735822122076d648c84f7d0d918e012e54ca075e579ab58e2b5733c13636875d331e20f8bb64736f6c63430007000033",
  "immutableReferences": {},
  "source": "import \"./Ownable.sol\";\r\n\r\npragma solidity 0.7.0;\r\n\r\n// SPDX-License-Identifier: UNLICENSED\r\n\r\ncontract People is Ownable {\r\n    struct Person {\r\n        uint256 id;\r\n        string name;\r\n        uint256 age;\r\n        uint256 height;\r\n        bool senior;\r\n    }\r\n\r\n    event personCreated(string name, bool senior);\r\n    event personDeleted(string name, bool senior, address deletedBy);\r\n\r\n    uint256 public balance;\r\n\r\n    modifier costs(uint256 cost) {\r\n        require(msg.value >= cost);\r\n        _;\r\n    }\r\n\r\n    mapping(address => Person) private people;\r\n    address[] private creators;\r\n\r\n    function createPerson(\r\n        string memory name,\r\n        uint256 age,\r\n        uint256 height\r\n    ) public payable costs(1 ether) {\r\n        require(age < 150, \"Age needs to be below 150\");\r\n        require(msg.value >= 1 ether);\r\n        balance += msg.value;\r\n\r\n        //This creates a person\r\n        Person memory newPerson;\r\n        newPerson.name = name;\r\n        newPerson.age = age;\r\n        newPerson.height = height;\r\n\r\n        if (age >= 65) {\r\n            newPerson.senior = true;\r\n        } else {\r\n            newPerson.senior = false;\r\n        }\r\n\r\n        insertPerson(newPerson);\r\n        creators.push(msg.sender);\r\n\r\n        assert(\r\n            keccak256(\r\n                abi.encodePacked(\r\n                    people[msg.sender].name,\r\n                    people[msg.sender].age,\r\n                    people[msg.sender].height,\r\n                    people[msg.sender].senior\r\n                )\r\n            ) ==\r\n                keccak256(\r\n                    abi.encodePacked(\r\n                        newPerson.name,\r\n                        newPerson.age,\r\n                        newPerson.height,\r\n                        newPerson.senior\r\n                    )\r\n                )\r\n        );\r\n        emit personCreated(newPerson.name, newPerson.senior);\r\n    }\r\n\r\n    function insertPerson(Person memory newPerson) private {\r\n        address creator = msg.sender;\r\n        people[creator] = newPerson;\r\n    }\r\n\r\n    function getPerson()\r\n        public\r\n        view\r\n        returns (\r\n            string memory name,\r\n            uint256 age,\r\n            uint256 height,\r\n            bool senior\r\n        )\r\n    {\r\n        address creator = msg.sender;\r\n        return (\r\n            people[creator].name,\r\n            people[creator].age,\r\n            people[creator].height,\r\n            people[creator].senior\r\n        );\r\n    }\r\n\r\n    function deletePerson(address creator) public onlyOwner {\r\n        string memory name = people[creator].name;\r\n        bool senior = people[creator].senior;\r\n\r\n        delete people[creator];\r\n        assert(people[creator].age == 0);\r\n        emit personDeleted(name, senior, owner);\r\n    }\r\n\r\n    function getCreator(uint256 index) public view onlyOwner returns (address) {\r\n        return creators[index];\r\n    }\r\n\r\n    function withdrawAll() public onlyOwner returns (uint256) {\r\n        uint256 toTransfer = balance;\r\n        balance = 0;\r\n        msg.sender.transfer(toTransfer);\r\n        return toTransfer;\r\n    }\r\n}\r\n",
  "sourcePath": "D:/Solidity/Ethereum-201/people/contracts/People.sol",
  "compiler": {
    "name": "solc",
    "version": "0.7.0+commit.9e61f92b.Emscripten.clang"
  },
  "schemaVersion": "3.3.2",
  "updatedAt": "2020-11-21T13:01:17.340Z",
  "networkType": "ethereum",
  "devdoc": {
    "kind": "dev",
    "methods": {},
    "version": 1
  },
  "userdoc": {
    "kind": "user",
    "methods": {},
    "version": 1
  }
}